{
  "contractName": "BlueToken",
  "abi": [
    {
      "inputs": [],
      "stateMutability": "nonpayable",
      "type": "constructor"
    },
    {
      "anonymous": false,
      "inputs": [
        {
          "indexed": true,
          "internalType": "address",
          "name": "owner",
          "type": "address"
        },
        {
          "indexed": true,
          "internalType": "address",
          "name": "spender",
          "type": "address"
        },
        {
          "indexed": false,
          "internalType": "uint256",
          "name": "value",
          "type": "uint256"
        }
      ],
      "name": "Approval",
      "type": "event"
    },
    {
      "anonymous": false,
      "inputs": [
        {
          "indexed": true,
          "internalType": "address",
          "name": "from",
          "type": "address"
        },
        {
          "indexed": true,
          "internalType": "address",
          "name": "to",
          "type": "address"
        },
        {
          "indexed": false,
          "internalType": "uint256",
          "name": "value",
          "type": "uint256"
        }
      ],
      "name": "Transfer",
      "type": "event"
    },
    {
      "inputs": [
        {
          "internalType": "address",
          "name": "owner",
          "type": "address"
        },
        {
          "internalType": "address",
          "name": "spender",
          "type": "address"
        }
      ],
      "name": "allowance",
      "outputs": [
        {
          "internalType": "uint256",
          "name": "",
          "type": "uint256"
        }
      ],
      "stateMutability": "view",
      "type": "function"
    },
    {
      "inputs": [
        {
          "internalType": "address",
          "name": "spender",
          "type": "address"
        },
        {
          "internalType": "uint256",
          "name": "amount",
          "type": "uint256"
        }
      ],
      "name": "approve",
      "outputs": [
        {
          "internalType": "bool",
          "name": "",
          "type": "bool"
        }
      ],
      "stateMutability": "nonpayable",
      "type": "function"
    },
    {
      "inputs": [
        {
          "internalType": "address",
          "name": "account",
          "type": "address"
        }
      ],
      "name": "balanceOf",
      "outputs": [
        {
          "internalType": "uint256",
          "name": "",
          "type": "uint256"
        }
      ],
      "stateMutability": "view",
      "type": "function"
    },
    {
      "inputs": [],
      "name": "decimals",
      "outputs": [
        {
          "internalType": "uint8",
          "name": "",
          "type": "uint8"
        }
      ],
      "stateMutability": "view",
      "type": "function"
    },
    {
      "inputs": [
        {
          "internalType": "address",
          "name": "spender",
          "type": "address"
        },
        {
          "internalType": "uint256",
          "name": "subtractedValue",
          "type": "uint256"
        }
      ],
      "name": "decreaseAllowance",
      "outputs": [
        {
          "internalType": "bool",
          "name": "",
          "type": "bool"
        }
      ],
      "stateMutability": "nonpayable",
      "type": "function"
    },
    {
      "inputs": [
        {
          "internalType": "address",
          "name": "spender",
          "type": "address"
        },
        {
          "internalType": "uint256",
          "name": "addedValue",
          "type": "uint256"
        }
      ],
      "name": "increaseAllowance",
      "outputs": [
        {
          "internalType": "bool",
          "name": "",
          "type": "bool"
        }
      ],
      "stateMutability": "nonpayable",
      "type": "function"
    },
    {
      "inputs": [],
      "name": "name",
      "outputs": [
        {
          "internalType": "string",
          "name": "",
          "type": "string"
        }
      ],
      "stateMutability": "view",
      "type": "function"
    },
    {
      "inputs": [],
      "name": "owner",
      "outputs": [
        {
          "internalType": "address payable",
          "name": "",
          "type": "address"
        }
      ],
      "stateMutability": "view",
      "type": "function"
    },
    {
      "inputs": [],
      "name": "symbol",
      "outputs": [
        {
          "internalType": "string",
          "name": "",
          "type": "string"
        }
      ],
      "stateMutability": "view",
      "type": "function"
    },
    {
      "inputs": [],
      "name": "totalSupply",
      "outputs": [
        {
          "internalType": "uint256",
          "name": "",
          "type": "uint256"
        }
      ],
      "stateMutability": "view",
      "type": "function"
    },
    {
      "inputs": [
        {
          "internalType": "address",
          "name": "to",
          "type": "address"
        },
        {
          "internalType": "uint256",
          "name": "amount",
          "type": "uint256"
        }
      ],
      "name": "transfer",
      "outputs": [
        {
          "internalType": "bool",
          "name": "",
          "type": "bool"
        }
      ],
      "stateMutability": "nonpayable",
      "type": "function"
    },
    {
      "inputs": [
        {
          "internalType": "address",
          "name": "from",
          "type": "address"
        },
        {
          "internalType": "address",
          "name": "to",
          "type": "address"
        },
        {
          "internalType": "uint256",
          "name": "amount",
          "type": "uint256"
        }
      ],
      "name": "transferFrom",
      "outputs": [
        {
          "internalType": "bool",
          "name": "",
          "type": "bool"
        }
      ],
      "stateMutability": "nonpayable",
      "type": "function"
    },
    {
      "inputs": [
        {
          "internalType": "address",
          "name": "_to",
          "type": "address"
        }
      ],
      "name": "mint",
      "outputs": [
        {
          "internalType": "bool",
          "name": "",
          "type": "bool"
        }
      ],
      "stateMutability": "nonpayable",
      "type": "function"
    },
    {
      "inputs": [
        {
          "internalType": "address",
          "name": "_addr",
          "type": "address"
        },
        {
          "internalType": "string",
          "name": "_name",
          "type": "string"
        },
        {
          "internalType": "string",
          "name": "_password",
          "type": "string"
        }
      ],
      "name": "signUp",
      "outputs": [
        {
          "internalType": "bool",
          "name": "",
          "type": "bool"
        }
      ],
      "stateMutability": "nonpayable",
      "type": "function"
    },
    {
      "inputs": [
        {
          "internalType": "string",
          "name": "_name",
          "type": "string"
        }
      ],
      "name": "signIn",
      "outputs": [
        {
          "internalType": "address",
          "name": "",
          "type": "address"
        },
        {
          "internalType": "uint256",
          "name": "",
          "type": "uint256"
        }
      ],
      "stateMutability": "view",
      "type": "function"
    }
  ],
  "bytecode": "0x60806040523480156200001157600080fd5b506040518060400160405280600981526020017f426c7565546f6b656e00000000000000000000000000000000000000000000008152506040518060400160405280600381526020017f42544b000000000000000000000000000000000000000000000000000000000081525081600390816200008f919062000522565b508060049081620000a1919062000522565b505050620000e133620000b96200012860201b60201c565b600a620000c7919062000799565b600a620000d59190620007ea565b6200013160201b60201c565b33600560006101000a81548173ffffffffffffffffffffffffffffffffffffffff021916908373ffffffffffffffffffffffffffffffffffffffff16021790555062000921565b60006012905090565b600073ffffffffffffffffffffffffffffffffffffffff168273ffffffffffffffffffffffffffffffffffffffff1603620001a3576040517f08c379a00000000000000000000000000000000000000000000000000000000081526004016200019a9062000896565b60405180910390fd5b620001b7600083836200029e60201b60201c565b8060026000828254620001cb9190620008b8565b92505081905550806000808473ffffffffffffffffffffffffffffffffffffffff1673ffffffffffffffffffffffffffffffffffffffff168152602001908152602001600020600082825401925050819055508173ffffffffffffffffffffffffffffffffffffffff16600073ffffffffffffffffffffffffffffffffffffffff167fddf252ad1be2c89b69c2b068fc378daa952ba7f163c4a11628f55a4df523b3ef836040516200027e919062000904565b60405180910390a36200029a60008383620002a360201b60201c565b5050565b505050565b505050565b600081519050919050565b7f4e487b7100000000000000000000000000000000000000000000000000000000600052604160045260246000fd5b7f4e487b7100000000000000000000000000000000000000000000000000000000600052602260045260246000fd5b600060028204905060018216806200032a57607f821691505b60208210810362000340576200033f620002e2565b5b50919050565b60008190508160005260206000209050919050565b60006020601f8301049050919050565b600082821b905092915050565b600060088302620003aa7fffffffffffffffffffffffffffffffffffffffffffffffffffffffffffffffff826200036b565b620003b686836200036b565b95508019841693508086168417925050509392505050565b6000819050919050565b6000819050919050565b600062000403620003fd620003f784620003ce565b620003d8565b620003ce565b9050919050565b6000819050919050565b6200041f83620003e2565b620004376200042e826200040a565b84845462000378565b825550505050565b600090565b6200044e6200043f565b6200045b81848462000414565b505050565b5b8181101562000483576200047760008262000444565b60018101905062000461565b5050565b601f821115620004d2576200049c8162000346565b620004a7846200035b565b81016020851015620004b7578190505b620004cf620004c6856200035b565b83018262000460565b50505b505050565b600082821c905092915050565b6000620004f760001984600802620004d7565b1980831691505092915050565b6000620005128383620004e4565b9150826002028217905092915050565b6200052d82620002a8565b67ffffffffffffffff811115620005495762000548620002b3565b5b62000555825462000311565b6200056282828562000487565b600060209050601f8311600181146200059a576000841562000585578287015190505b62000591858262000504565b86555062000601565b601f198416620005aa8662000346565b60005b82811015620005d457848901518255600182019150602085019450602081019050620005ad565b86831015620005f45784890151620005f0601f891682620004e4565b8355505b6001600288020188555050505b505050505050565b7f4e487b7100000000000000000000000000000000000000000000000000000000600052601160045260246000fd5b60008160011c9050919050565b6000808291508390505b600185111562000697578086048111156200066f576200066e62000609565b5b60018516156200067f5780820291505b80810290506200068f8562000638565b94506200064f565b94509492505050565b600082620006b2576001905062000785565b81620006c2576000905062000785565b8160018114620006db5760028114620006e6576200071c565b600191505062000785565b60ff841115620006fb57620006fa62000609565b5b8360020a91508482111562000715576200071462000609565b5b5062000785565b5060208310610133831016604e8410600b8410161715620007565782820a90508381111562000750576200074f62000609565b5b62000785565b62000765848484600162000645565b925090508184048111156200077f576200077e62000609565b5b81810290505b9392505050565b600060ff82169050919050565b6000620007a682620003ce565b9150620007b3836200078c565b9250620007e27fffffffffffffffffffffffffffffffffffffffffffffffffffffffffffffffff8484620006a0565b905092915050565b6000620007f782620003ce565b91506200080483620003ce565b92508282026200081481620003ce565b915082820484148315176200082e576200082d62000609565b5b5092915050565b600082825260208201905092915050565b7f45524332303a206d696e7420746f20746865207a65726f206164647265737300600082015250565b60006200087e601f8362000835565b91506200088b8262000846565b602082019050919050565b60006020820190508181036000830152620008b1816200086f565b9050919050565b6000620008c582620003ce565b9150620008d283620003ce565b9250828201905080821115620008ed57620008ec62000609565b5b92915050565b620008fe81620003ce565b82525050565b60006020820190506200091b6000830184620008f3565b92915050565b61210a80620009316000396000f3fe608060405234801561001057600080fd5b50600436106100f55760003560e01c806370a0823111610097578063a9059cbb11610066578063a9059cbb146102b0578063a9b4d919146102e0578063c95f728a14610310578063dd62ed3e14610341576100f5565b806370a08231146102145780638da5cb5b1461024457806395d89b4114610262578063a457c2d714610280576100f5565b806323b872dd116100d357806323b872dd14610166578063313ce5671461019657806339509351146101b45780636a627842146101e4576100f5565b806306fdde03146100fa578063095ea7b31461011857806318160ddd14610148575b600080fd5b610102610371565b60405161010f9190611186565b60405180910390f35b610132600480360381019061012d9190611250565b610403565b60405161013f91906112ab565b60405180910390f35b610150610426565b60405161015d91906112d5565b60405180910390f35b610180600480360381019061017b91906112f0565b610430565b60405161018d91906112ab565b60405180910390f35b61019e61045f565b6040516101ab919061135f565b60405180910390f35b6101ce60048036038101906101c99190611250565b610468565b6040516101db91906112ab565b60405180910390f35b6101fe60048036038101906101f9919061137a565b61049f565b60405161020b91906112ab565b60405180910390f35b61022e6004803603810190610229919061137a565b6104d3565b60405161023b91906112d5565b60405180910390f35b61024c61051b565b60405161025991906113c8565b60405180910390f35b61026a610541565b6040516102779190611186565b60405180910390f35b61029a60048036038101906102959190611250565b6105d3565b6040516102a791906112ab565b60405180910390f35b6102ca60048036038101906102c59190611250565b61064a565b6040516102d791906112ab565b60405180910390f35b6102fa60048036038101906102f59190611518565b61066d565b60405161030791906112ab565b60405180910390f35b61032a600480360381019061032591906115a3565b6108bd565b6040516103389291906115fb565b60405180910390f35b61035b60048036038101906103569190611624565b610a3c565b60405161036891906112d5565b60405180910390f35b60606003805461038090611693565b80601f01602080910402602001604051908101604052809291908181526020018280546103ac90611693565b80156103f95780601f106103ce576101008083540402835291602001916103f9565b820191906000526020600020905b8154815290600101906020018083116103dc57829003601f168201915b5050505050905090565b60008061040e610ac3565b905061041b818585610acb565b600191505092915050565b6000600254905090565b60008061043b610ac3565b9050610448858285610c94565b610453858585610d20565b60019150509392505050565b60006012905090565b600080610473610ac3565b90506104948185856104858589610a3c565b61048f91906116f3565b610acb565b600191505092915050565b60006104ca826104ad61045f565b600a6104b9919061185a565b60016104c591906118a5565b610f96565b60019050919050565b60008060008373ffffffffffffffffffffffffffffffffffffffff1673ffffffffffffffffffffffffffffffffffffffff168152602001908152602001600020549050919050565b600560009054906101000a900473ffffffffffffffffffffffffffffffffffffffff1681565b60606004805461055090611693565b80601f016020809104026020016040519081016040528092919081815260200182805461057c90611693565b80156105c95780601f1061059e576101008083540402835291602001916105c9565b820191906000526020600020905b8154815290600101906020018083116105ac57829003601f168201915b5050505050905090565b6000806105de610ac3565b905060006105ec8286610a3c565b905083811015610631576040517f08c379a000000000000000000000000000000000000000000000000000000000815260040161062890611959565b60405180910390fd5b61063e8286868403610acb565b60019250505092915050565b600080610655610ac3565b9050610662818585610d20565b600191505092915050565b60008073ffffffffffffffffffffffffffffffffffffffff1660068460405161069691906119b5565b908152602001604051809103902060000160009054906101000a900473ffffffffffffffffffffffffffffffffffffffff1673ffffffffffffffffffffffffffffffffffffffff161461071e576040517f08c379a000000000000000000000000000000000000000000000000000000000815260040161071590611a18565b60405180910390fd5b8360068460405161072f91906119b5565b908152602001604051809103902060000160006101000a81548173ffffffffffffffffffffffffffffffffffffffff021916908373ffffffffffffffffffffffffffffffffffffffff1602179055508260068460405161078f91906119b5565b908152602001604051809103902060010190816107ac9190611be4565b50816006846040516107be91906119b5565b908152602001604051809103902060020190816107db9190611be4565b50610805846107e861045f565b600a6107f4919061185a565b600161080091906118a5565b610f96565b61080d61045f565b600a610819919061185a565b600161082591906118a5565b600760008673ffffffffffffffffffffffffffffffffffffffff1673ffffffffffffffffffffffffffffffffffffffff1681526020019081526020016000205461086f91906116f3565b600760008673ffffffffffffffffffffffffffffffffffffffff1673ffffffffffffffffffffffffffffffffffffffff16815260200190815260200160002081905550600190509392505050565b600080600073ffffffffffffffffffffffffffffffffffffffff166006846040516108e891906119b5565b908152602001604051809103902060000160009054906101000a900473ffffffffffffffffffffffffffffffffffffffff1673ffffffffffffffffffffffffffffffffffffffff1603610970576040517f08c379a000000000000000000000000000000000000000000000000000000000815260040161096790611d02565b60405180910390fd5b60068360405161098091906119b5565b908152602001604051809103902060000160009054906101000a900473ffffffffffffffffffffffffffffffffffffffff16600760006006866040516109c691906119b5565b908152602001604051809103902060000160009054906101000a900473ffffffffffffffffffffffffffffffffffffffff1673ffffffffffffffffffffffffffffffffffffffff1673ffffffffffffffffffffffffffffffffffffffff1681526020019081526020016000205491509150915091565b6000600160008473ffffffffffffffffffffffffffffffffffffffff1673ffffffffffffffffffffffffffffffffffffffff16815260200190815260200160002060008373ffffffffffffffffffffffffffffffffffffffff1673ffffffffffffffffffffffffffffffffffffffff16815260200190815260200160002054905092915050565b600033905090565b600073ffffffffffffffffffffffffffffffffffffffff168373ffffffffffffffffffffffffffffffffffffffff1603610b3a576040517f08c379a0000000000000000000000000000000000000000000000000000000008152600401610b3190611d94565b60405180910390fd5b600073ffffffffffffffffffffffffffffffffffffffff168273ffffffffffffffffffffffffffffffffffffffff1603610ba9576040517f08c379a0000000000000000000000000000000000000000000000000000000008152600401610ba090611e26565b60405180910390fd5b80600160008573ffffffffffffffffffffffffffffffffffffffff1673ffffffffffffffffffffffffffffffffffffffff16815260200190815260200160002060008473ffffffffffffffffffffffffffffffffffffffff1673ffffffffffffffffffffffffffffffffffffffff168152602001908152602001600020819055508173ffffffffffffffffffffffffffffffffffffffff168373ffffffffffffffffffffffffffffffffffffffff167f8c5be1e5ebec7d5bd14f71427d1e84f3dd0314c0f7b2291e5b200ac8c7c3b92583604051610c8791906112d5565b60405180910390a3505050565b6000610ca08484610a3c565b90507fffffffffffffffffffffffffffffffffffffffffffffffffffffffffffffffff8114610d1a5781811015610d0c576040517f08c379a0000000000000000000000000000000000000000000000000000000008152600401610d0390611e92565b60405180910390fd5b610d198484848403610acb565b5b50505050565b600073ffffffffffffffffffffffffffffffffffffffff168373ffffffffffffffffffffffffffffffffffffffff1603610d8f576040517f08c379a0000000000000000000000000000000000000000000000000000000008152600401610d8690611f24565b60405180910390fd5b600073ffffffffffffffffffffffffffffffffffffffff168273ffffffffffffffffffffffffffffffffffffffff1603610dfe576040517f08c379a0000000000000000000000000000000000000000000000000000000008152600401610df590611fb6565b60405180910390fd5b610e098383836110ec565b60008060008573ffffffffffffffffffffffffffffffffffffffff1673ffffffffffffffffffffffffffffffffffffffff16815260200190815260200160002054905081811015610e8f576040517f08c379a0000000000000000000000000000000000000000000000000000000008152600401610e8690612048565b60405180910390fd5b8181036000808673ffffffffffffffffffffffffffffffffffffffff1673ffffffffffffffffffffffffffffffffffffffff16815260200190815260200160002081905550816000808573ffffffffffffffffffffffffffffffffffffffff1673ffffffffffffffffffffffffffffffffffffffff168152602001908152602001600020600082825401925050819055508273ffffffffffffffffffffffffffffffffffffffff168473ffffffffffffffffffffffffffffffffffffffff167fddf252ad1be2c89b69c2b068fc378daa952ba7f163c4a11628f55a4df523b3ef84604051610f7d91906112d5565b60405180910390a3610f908484846110f1565b50505050565b600073ffffffffffffffffffffffffffffffffffffffff168273ffffffffffffffffffffffffffffffffffffffff1603611005576040517f08c379a0000000000000000000000000000000000000000000000000000000008152600401610ffc906120b4565b60405180910390fd5b611011600083836110ec565b806002600082825461102391906116f3565b92505081905550806000808473ffffffffffffffffffffffffffffffffffffffff1673ffffffffffffffffffffffffffffffffffffffff168152602001908152602001600020600082825401925050819055508173ffffffffffffffffffffffffffffffffffffffff16600073ffffffffffffffffffffffffffffffffffffffff167fddf252ad1be2c89b69c2b068fc378daa952ba7f163c4a11628f55a4df523b3ef836040516110d491906112d5565b60405180910390a36110e8600083836110f1565b5050565b505050565b505050565b600081519050919050565b600082825260208201905092915050565b60005b83811015611130578082015181840152602081019050611115565b60008484015250505050565b6000601f19601f8301169050919050565b6000611158826110f6565b6111628185611101565b9350611172818560208601611112565b61117b8161113c565b840191505092915050565b600060208201905081810360008301526111a0818461114d565b905092915050565b6000604051905090565b600080fd5b600080fd5b600073ffffffffffffffffffffffffffffffffffffffff82169050919050565b60006111e7826111bc565b9050919050565b6111f7816111dc565b811461120257600080fd5b50565b600081359050611214816111ee565b92915050565b6000819050919050565b61122d8161121a565b811461123857600080fd5b50565b60008135905061124a81611224565b92915050565b60008060408385031215611267576112666111b2565b5b600061127585828601611205565b92505060206112868582860161123b565b9150509250929050565b60008115159050919050565b6112a581611290565b82525050565b60006020820190506112c0600083018461129c565b92915050565b6112cf8161121a565b82525050565b60006020820190506112ea60008301846112c6565b92915050565b600080600060608486031215611309576113086111b2565b5b600061131786828701611205565b935050602061132886828701611205565b92505060406113398682870161123b565b9150509250925092565b600060ff82169050919050565b61135981611343565b82525050565b60006020820190506113746000830184611350565b92915050565b6000602082840312156113905761138f6111b2565b5b600061139e84828501611205565b91505092915050565b60006113b2826111bc565b9050919050565b6113c2816113a7565b82525050565b60006020820190506113dd60008301846113b9565b92915050565b600080fd5b600080fd5b7f4e487b7100000000000000000000000000000000000000000000000000000000600052604160045260246000fd5b6114258261113c565b810181811067ffffffffffffffff82111715611444576114436113ed565b5b80604052505050565b60006114576111a8565b9050611463828261141c565b919050565b600067ffffffffffffffff821115611483576114826113ed565b5b61148c8261113c565b9050602081019050919050565b82818337600083830152505050565b60006114bb6114b684611468565b61144d565b9050828152602081018484840111156114d7576114d66113e8565b5b6114e2848285611499565b509392505050565b600082601f8301126114ff576114fe6113e3565b5b813561150f8482602086016114a8565b91505092915050565b600080600060608486031215611531576115306111b2565b5b600061153f86828701611205565b935050602084013567ffffffffffffffff8111156115605761155f6111b7565b5b61156c868287016114ea565b925050604084013567ffffffffffffffff81111561158d5761158c6111b7565b5b611599868287016114ea565b9150509250925092565b6000602082840312156115b9576115b86111b2565b5b600082013567ffffffffffffffff8111156115d7576115d66111b7565b5b6115e3848285016114ea565b91505092915050565b6115f5816111dc565b82525050565b600060408201905061161060008301856115ec565b61161d60208301846112c6565b9392505050565b6000806040838503121561163b5761163a6111b2565b5b600061164985828601611205565b925050602061165a85828601611205565b9150509250929050565b7f4e487b7100000000000000000000000000000000000000000000000000000000600052602260045260246000fd5b600060028204905060018216806116ab57607f821691505b6020821081036116be576116bd611664565b5b50919050565b7f4e487b7100000000000000000000000000000000000000000000000000000000600052601160045260246000fd5b60006116fe8261121a565b91506117098361121a565b9250828201905080821115611721576117206116c4565b5b92915050565b60008160011c9050919050565b6000808291508390505b600185111561177e5780860481111561175a576117596116c4565b5b60018516156117695780820291505b808102905061177785611727565b945061173e565b94509492505050565b6000826117975760019050611853565b816117a55760009050611853565b81600181146117bb57600281146117c5576117f4565b6001915050611853565b60ff8411156117d7576117d66116c4565b5b8360020a9150848211156117ee576117ed6116c4565b5b50611853565b5060208310610133831016604e8410600b84101617156118295782820a905083811115611824576118236116c4565b5b611853565b6118368484846001611734565b9250905081840481111561184d5761184c6116c4565b5b81810290505b9392505050565b60006118658261121a565b915061187083611343565b925061189d7fffffffffffffffffffffffffffffffffffffffffffffffffffffffffffffffff8484611787565b905092915050565b60006118b08261121a565b91506118bb8361121a565b92508282026118c98161121a565b915082820484148315176118e0576118df6116c4565b5b5092915050565b7f45524332303a2064656372656173656420616c6c6f77616e63652062656c6f7760008201527f207a65726f000000000000000000000000000000000000000000000000000000602082015250565b6000611943602583611101565b915061194e826118e7565b604082019050919050565b6000602082019050818103600083015261197281611936565b9050919050565b600081905092915050565b600061198f826110f6565b6119998185611979565b93506119a9818560208601611112565b80840191505092915050565b60006119c18284611984565b915081905092915050565b7f5573657220616c72656164792065787369737473000000000000000000000000600082015250565b6000611a02601483611101565b9150611a0d826119cc565b602082019050919050565b60006020820190508181036000830152611a31816119f5565b9050919050565b60008190508160005260206000209050919050565b60006020601f8301049050919050565b600082821b905092915050565b600060088302611a9a7fffffffffffffffffffffffffffffffffffffffffffffffffffffffffffffffff82611a5d565b611aa48683611a5d565b95508019841693508086168417925050509392505050565b6000819050919050565b6000611ae1611adc611ad78461121a565b611abc565b61121a565b9050919050565b6000819050919050565b611afb83611ac6565b611b0f611b0782611ae8565b848454611a6a565b825550505050565b600090565b611b24611b17565b611b2f818484611af2565b505050565b5b81811015611b5357611b48600082611b1c565b600181019050611b35565b5050565b601f821115611b9857611b6981611a38565b611b7284611a4d565b81016020851015611b81578190505b611b95611b8d85611a4d565b830182611b34565b50505b505050565b600082821c905092915050565b6000611bbb60001984600802611b9d565b1980831691505092915050565b6000611bd48383611baa565b9150826002028217905092915050565b611bed826110f6565b67ffffffffffffffff811115611c0657611c056113ed565b5b611c108254611693565b611c1b828285611b57565b600060209050601f831160018114611c4e5760008415611c3c578287015190505b611c468582611bc8565b865550611cae565b601f198416611c5c86611a38565b60005b82811015611c8457848901518255600182019150602085019450602081019050611c5f565b86831015611ca15784890151611c9d601f891682611baa565b8355505b6001600288020188555050505b505050505050565b7f55736572204e6f74206578736973747300000000000000000000000000000000600082015250565b6000611cec601083611101565b9150611cf782611cb6565b602082019050919050565b60006020820190508181036000830152611d1b81611cdf565b9050919050565b7f45524332303a20617070726f76652066726f6d20746865207a65726f2061646460008201527f7265737300000000000000000000000000000000000000000000000000000000602082015250565b6000611d7e602483611101565b9150611d8982611d22565b604082019050919050565b60006020820190508181036000830152611dad81611d71565b9050919050565b7f45524332303a20617070726f766520746f20746865207a65726f20616464726560008201527f7373000000000000000000000000000000000000000000000000000000000000602082015250565b6000611e10602283611101565b9150611e1b82611db4565b604082019050919050565b60006020820190508181036000830152611e3f81611e03565b9050919050565b7f45524332303a20696e73756666696369656e7420616c6c6f77616e6365000000600082015250565b6000611e7c601d83611101565b9150611e8782611e46565b602082019050919050565b60006020820190508181036000830152611eab81611e6f565b9050919050565b7f45524332303a207472616e736665722066726f6d20746865207a65726f20616460008201527f6472657373000000000000000000000000000000000000000000000000000000602082015250565b6000611f0e602583611101565b9150611f1982611eb2565b604082019050919050565b60006020820190508181036000830152611f3d81611f01565b9050919050565b7f45524332303a207472616e7366657220746f20746865207a65726f206164647260008201527f6573730000000000000000000000000000000000000000000000000000000000602082015250565b6000611fa0602383611101565b9150611fab82611f44565b604082019050919050565b60006020820190508181036000830152611fcf81611f93565b9050919050565b7f45524332303a207472616e7366657220616d6f756e742065786365656473206260008201527f616c616e63650000000000000000000000000000000000000000000000000000602082015250565b6000612032602683611101565b915061203d82611fd6565b604082019050919050565b6000602082019050818103600083015261206181612025565b9050919050565b7f45524332303a206d696e7420746f20746865207a65726f206164647265737300600082015250565b600061209e601f83611101565b91506120a982612068565b602082019050919050565b600060208201905081810360008301526120cd81612091565b905091905056fea2646970667358221220d416c98dffdc993d8b72c1714afdfd4f42e295ac3c663e41941890625814ba4864736f6c63430008110033",
  "immutableReferences": {},
  "source": "// SPDX-License-Identifier:MIT\r\n\r\npragma solidity ^0.8.0;\r\n\r\nimport \"@openzeppelin/contracts/token/ERC20/ERC20.sol\";\r\n\r\ncontract BlueToken is ERC20 {\r\n    address payable public owner;\r\n\r\n    struct UserDetail {\r\n        address addr;\r\n        string name;\r\n        string password;\r\n    }\r\n\r\n    mapping(string => UserDetail) user;\r\n    mapping(address => uint256) balances;\r\n\r\n    constructor() ERC20(\"BlueToken\", \"BTK\") {\r\n        _mint(msg.sender, 10 * (10**decimals()));\r\n        owner = payable(msg.sender);\r\n    }\r\n\r\n    function mint(address _to) public returns (bool) {\r\n        _mint(_to, 1 * (10**decimals()));\r\n        return true;\r\n    }\r\n\r\n    function signUp(\r\n        address _addr,\r\n        string memory _name,\r\n        string memory _password\r\n    ) external returns (bool) {\r\n        require(user[_name].addr == address(0), \"User already exsists\");\r\n        user[_name].addr = _addr;\r\n        user[_name].name = _name;\r\n        user[_name].password = _password;\r\n        _mint(_addr, 1 * (10**decimals()));\r\n        balances[_addr] = balances[_addr] + (1 * (10**decimals()));\r\n        return true;\r\n    }\r\n\r\n    function signIn(string memory _name)\r\n        external\r\n        view\r\n        returns (address, uint256)\r\n    {\r\n        require(user[_name].addr != address(0), \"User Not exsists\");\r\n        return (user[_name].addr, balances[user[_name].addr]);\r\n    }\r\n}\r\n",
  "sourcePath": "C:\\Users\\KR799UV\\blockchain_poc\\NFTMarket\\server\\contracts\\BlueToken.sol",
  "compiler": {
    "name": "solc",
    "version": "0.8.17+commit.8df45f5f.Emscripten.clang"
  },
  "schemaVersion": "3.4.11",
  "updatedAt": "2023-01-09T06:01:33.344Z",
  "devdoc": {
    "kind": "dev",
    "methods": {
      "allowance(address,address)": {
        "details": "See {IERC20-allowance}."
      },
      "approve(address,uint256)": {
        "details": "See {IERC20-approve}. NOTE: If `amount` is the maximum `uint256`, the allowance is not updated on `transferFrom`. This is semantically equivalent to an infinite approval. Requirements: - `spender` cannot be the zero address."
      },
      "balanceOf(address)": {
        "details": "See {IERC20-balanceOf}."
      },
      "decimals()": {
        "details": "Returns the number of decimals used to get its user representation. For example, if `decimals` equals `2`, a balance of `505` tokens should be displayed to a user as `5.05` (`505 / 10 ** 2`). Tokens usually opt for a value of 18, imitating the relationship between Ether and Wei. This is the value {ERC20} uses, unless this function is overridden; NOTE: This information is only used for _display_ purposes: it in no way affects any of the arithmetic of the contract, including {IERC20-balanceOf} and {IERC20-transfer}."
      },
      "decreaseAllowance(address,uint256)": {
        "details": "Atomically decreases the allowance granted to `spender` by the caller. This is an alternative to {approve} that can be used as a mitigation for problems described in {IERC20-approve}. Emits an {Approval} event indicating the updated allowance. Requirements: - `spender` cannot be the zero address. - `spender` must have allowance for the caller of at least `subtractedValue`."
      },
      "increaseAllowance(address,uint256)": {
        "details": "Atomically increases the allowance granted to `spender` by the caller. This is an alternative to {approve} that can be used as a mitigation for problems described in {IERC20-approve}. Emits an {Approval} event indicating the updated allowance. Requirements: - `spender` cannot be the zero address."
      },
      "name()": {
        "details": "Returns the name of the token."
      },
      "symbol()": {
        "details": "Returns the symbol of the token, usually a shorter version of the name."
      },
      "totalSupply()": {
        "details": "See {IERC20-totalSupply}."
      },
      "transfer(address,uint256)": {
        "details": "See {IERC20-transfer}. Requirements: - `to` cannot be the zero address. - the caller must have a balance of at least `amount`."
      },
      "transferFrom(address,address,uint256)": {
        "details": "See {IERC20-transferFrom}. Emits an {Approval} event indicating the updated allowance. This is not required by the EIP. See the note at the beginning of {ERC20}. NOTE: Does not update the allowance if the current allowance is the maximum `uint256`. Requirements: - `from` and `to` cannot be the zero address. - `from` must have a balance of at least `amount`. - the caller must have allowance for ``from``'s tokens of at least `amount`."
      }
    },
    "version": 1
  },
  "userdoc": {
    "kind": "user",
    "methods": {},
    "version": 1
  }
}