{
  "contractName": "Faucet",
  "abi": [
    {
      "inputs": [
        {
          "internalType": "address",
          "name": "tokenAddress",
          "type": "address"
        }
      ],
      "stateMutability": "nonpayable",
      "type": "constructor"
    },
    {
      "anonymous": false,
      "inputs": [
        {
          "indexed": true,
          "internalType": "address",
          "name": "from",
          "type": "address"
        },
        {
          "indexed": true,
          "internalType": "uint256",
          "name": "amount",
          "type": "uint256"
        }
      ],
      "name": "Deposit",
      "type": "event"
    },
    {
      "anonymous": false,
      "inputs": [
        {
          "indexed": true,
          "internalType": "address",
          "name": "to",
          "type": "address"
        },
        {
          "indexed": true,
          "internalType": "uint256",
          "name": "amount",
          "type": "uint256"
        }
      ],
      "name": "withDraw",
      "type": "event"
    },
    {
      "inputs": [],
      "name": "lockTime",
      "outputs": [
        {
          "internalType": "uint256",
          "name": "",
          "type": "uint256"
        }
      ],
      "stateMutability": "view",
      "type": "function"
    },
    {
      "inputs": [],
      "name": "token",
      "outputs": [
        {
          "internalType": "contract IERC20",
          "name": "",
          "type": "address"
        }
      ],
      "stateMutability": "view",
      "type": "function"
    },
    {
      "inputs": [],
      "name": "withdrawlAmount",
      "outputs": [
        {
          "internalType": "uint256",
          "name": "",
          "type": "uint256"
        }
      ],
      "stateMutability": "view",
      "type": "function"
    },
    {
      "stateMutability": "payable",
      "type": "receive"
    },
    {
      "inputs": [],
      "name": "requestTokens",
      "outputs": [],
      "stateMutability": "nonpayable",
      "type": "function"
    },
    {
      "inputs": [],
      "name": "getBalance",
      "outputs": [
        {
          "internalType": "uint256",
          "name": "",
          "type": "uint256"
        }
      ],
      "stateMutability": "view",
      "type": "function"
    },
    {
      "inputs": [],
      "name": "withDrawal",
      "outputs": [],
      "stateMutability": "nonpayable",
      "type": "function"
    }
  ],
  "bytecode": "0x60806040526802b5e3af16b1880000600255603c60045534801561002257600080fd5b50604051610dd0380380610dd08339818101604052810190610044919061012e565b80600160006101000a81548173ffffffffffffffffffffffffffffffffffffffff021916908373ffffffffffffffffffffffffffffffffffffffff160217905550336000806101000a81548173ffffffffffffffffffffffffffffffffffffffff021916908373ffffffffffffffffffffffffffffffffffffffff1602179055505061015b565b600080fd5b600073ffffffffffffffffffffffffffffffffffffffff82169050919050565b60006100fb826100d0565b9050919050565b61010b816100f0565b811461011657600080fd5b50565b60008151905061012881610102565b92915050565b600060208284031215610144576101436100cb565b5b600061015284828501610119565b91505092915050565b610c668061016a6000396000f3fe6080604052600436106100595760003560e01c80630967294f146100a95780630d668087146100d457806312065fe0146100ff578063359cf2b71461012a57806373932bfd14610141578063fc0c546a14610158576100a4565b366100a457343373ffffffffffffffffffffffffffffffffffffffff167fe1fffcc4923d04b559f4d29a8bfc6cda04eb5b0d3c460751c2402c5c5cc9109c60405160405180910390a3005b600080fd5b3480156100b557600080fd5b506100be610183565b6040516100cb91906107e3565b60405180910390f35b3480156100e057600080fd5b506100e9610189565b6040516100f691906107e3565b60405180910390f35b34801561010b57600080fd5b5061011461018f565b60405161012191906107e3565b60405180910390f35b34801561013657600080fd5b5061013f610232565b005b34801561014d57600080fd5b506101566104f9565b005b34801561016457600080fd5b5061016d6107a4565b60405161017a919061087d565b60405180910390f35b60025481565b60045481565b6000600160009054906101000a900473ffffffffffffffffffffffffffffffffffffffff1673ffffffffffffffffffffffffffffffffffffffff166370a08231306040518263ffffffff1660e01b81526004016101ec91906108b9565b602060405180830381865afa158015610209573d6000803e3d6000fd5b505050506040513d601f19601f8201168201806040525081019061022d9190610905565b905090565b600073ffffffffffffffffffffffffffffffffffffffff163373ffffffffffffffffffffffffffffffffffffffff16036102a1576040517f08c379a00000000000000000000000000000000000000000000000000000000081526004016102989061098f565b60405180910390fd5b600254600160009054906101000a900473ffffffffffffffffffffffffffffffffffffffff1673ffffffffffffffffffffffffffffffffffffffff166370a08231306040518263ffffffff1660e01b81526004016102ff91906108b9565b602060405180830381865afa15801561031c573d6000803e3d6000fd5b505050506040513d601f19601f820116820180604052508101906103409190610905565b1015610381576040517f08c379a000000000000000000000000000000000000000000000000000000000815260040161037890610a21565b60405180910390fd5b600360003373ffffffffffffffffffffffffffffffffffffffff1673ffffffffffffffffffffffffffffffffffffffff16815260200190815260200160002054421015610403576040517f08c379a00000000000000000000000000000000000000000000000000000000081526004016103fa90610ab3565b60405180910390fd5b600454426104119190610b02565b600360003373ffffffffffffffffffffffffffffffffffffffff1673ffffffffffffffffffffffffffffffffffffffff16815260200190815260200160002081905550600160009054906101000a900473ffffffffffffffffffffffffffffffffffffffff1673ffffffffffffffffffffffffffffffffffffffff1663a9059cbb336002546040518363ffffffff1660e01b81526004016104b3929190610b36565b6020604051808303816000875af11580156104d2573d6000803e3d6000fd5b505050506040513d601f19601f820116820180604052508101906104f69190610b97565b50565b60008054906101000a900473ffffffffffffffffffffffffffffffffffffffff1673ffffffffffffffffffffffffffffffffffffffff163373ffffffffffffffffffffffffffffffffffffffff1614610587576040517f08c379a000000000000000000000000000000000000000000000000000000000815260040161057e90610c10565b60405180910390fd5b600160009054906101000a900473ffffffffffffffffffffffffffffffffffffffff1673ffffffffffffffffffffffffffffffffffffffff166370a08231306040518263ffffffff1660e01b81526004016105e291906108b9565b602060405180830381865afa1580156105ff573d6000803e3d6000fd5b505050506040513d601f19601f820116820180604052508101906106239190610905565b3373ffffffffffffffffffffffffffffffffffffffff167f191e2e83f4c7f1b30bb63036d1e13fb50b723a1cfd4687e77d11faa02ef01a8360405160405180910390a3600160009054906101000a900473ffffffffffffffffffffffffffffffffffffffff1673ffffffffffffffffffffffffffffffffffffffff1663a9059cbb33600160009054906101000a900473ffffffffffffffffffffffffffffffffffffffff1673ffffffffffffffffffffffffffffffffffffffff166370a08231306040518263ffffffff1660e01b815260040161070091906108b9565b602060405180830381865afa15801561071d573d6000803e3d6000fd5b505050506040513d601f19601f820116820180604052508101906107419190610905565b6040518363ffffffff1660e01b815260040161075e929190610b36565b6020604051808303816000875af115801561077d573d6000803e3d6000fd5b505050506040513d601f19601f820116820180604052508101906107a19190610b97565b50565b600160009054906101000a900473ffffffffffffffffffffffffffffffffffffffff1681565b6000819050919050565b6107dd816107ca565b82525050565b60006020820190506107f860008301846107d4565b92915050565b600073ffffffffffffffffffffffffffffffffffffffff82169050919050565b6000819050919050565b600061084361083e610839846107fe565b61081e565b6107fe565b9050919050565b600061085582610828565b9050919050565b60006108678261084a565b9050919050565b6108778161085c565b82525050565b6000602082019050610892600083018461086e565b92915050565b60006108a3826107fe565b9050919050565b6108b381610898565b82525050565b60006020820190506108ce60008301846108aa565b92915050565b600080fd5b6108e2816107ca565b81146108ed57600080fd5b50565b6000815190506108ff816108d9565b92915050565b60006020828403121561091b5761091a6108d4565b5b6000610929848285016108f0565b91505092915050565b600082825260208201905092915050565b7f496e76616c6964204163636f756e740000000000000000000000000000000000600082015250565b6000610979600f83610932565b915061098482610943565b602082019050919050565b600060208201905081810360008301526109a88161096c565b9050919050565b7f496e73756666696369656e742062616c616e636520696e20746865206661756360008201527f657420666f722077697468647261776c20726571756573740000000000000000602082015250565b6000610a0b603883610932565b9150610a16826109af565b604082019050919050565b60006020820190508181036000830152610a3a816109fe565b9050919050565b7f496e73756666696369656e742074696d6520656c61707365642073696e63652060008201527f6c6173742077697468647261776c202d2074727920616761696e206c61746572602082015250565b6000610a9d604083610932565b9150610aa882610a41565b604082019050919050565b60006020820190508181036000830152610acc81610a90565b9050919050565b7f4e487b7100000000000000000000000000000000000000000000000000000000600052601160045260246000fd5b6000610b0d826107ca565b9150610b18836107ca565b9250828201905080821115610b3057610b2f610ad3565b5b92915050565b6000604082019050610b4b60008301856108aa565b610b5860208301846107d4565b9392505050565b60008115159050919050565b610b7481610b5f565b8114610b7f57600080fd5b50565b600081519050610b9181610b6b565b92915050565b600060208284031215610bad57610bac6108d4565b5b6000610bbb84828501610b82565b91505092915050565b7f6f6e6c79206f776e65722063616e206163636573730000000000000000000000600082015250565b6000610bfa601583610932565b9150610c0582610bc4565b602082019050919050565b60006020820190508181036000830152610c2981610bed565b905091905056fea2646970667358221220f6cac2efdd3e5e726deb9b06cdb953f63c88605bf4bd12fe96dae61c1b7eeaf964736f6c63430008110033",
  "immutableReferences": {},
  "source": "// SPDX-Licence-Identifier:MIT\r\n\r\npragma solidity ^0.8.17;\r\n\r\ninterface IERC20 {\r\n    function transfer(address to, uint256 amount) external returns (bool);\r\n\r\n    function balanceOf(address account) external view returns (uint256);\r\n\r\n    event Transfer(address indexed from, address indexed to, uint256 value);\r\n}\r\n\r\ncontract Faucet {\r\n    address payable owner;\r\n    IERC20 public token;\r\n\r\n    event withDraw(address indexed to, uint256 indexed amount);\r\n    event Deposit(address indexed from, uint256 indexed amount);\r\n\r\n    uint256 public withdrawlAmount = 50 * (10**18);\r\n\r\n    mapping(address => uint256) nextAccessTime;\r\n    uint256 public lockTime = 1 minutes;\r\n\r\n    constructor(address tokenAddress) {\r\n        token = IERC20(tokenAddress);\r\n        owner = payable(msg.sender);\r\n    }\r\n\r\n    function requestTokens() public {\r\n        require(msg.sender != address(0), \"Invalid Account\");\r\n        require(\r\n            token.balanceOf(address(this)) >= withdrawlAmount,\r\n            \"Insufficient balance in the faucet for withdrawl request\"\r\n        );\r\n        require(\r\n            block.timestamp >= nextAccessTime[msg.sender],\r\n            \"Insufficient time elapsed since last withdrawl - try again later\"\r\n        );\r\n        nextAccessTime[msg.sender] = block.timestamp + lockTime;\r\n        token.transfer(msg.sender, withdrawlAmount);\r\n    }\r\n\r\n    receive() external payable {\r\n        emit Deposit(msg.sender, msg.value);\r\n    }\r\n\r\n    function getBalance() external view returns (uint256) {\r\n        return token.balanceOf(address(this));\r\n    }\r\n\r\n    function withDrawal() external onlyOwner {\r\n        emit withDraw(msg.sender, token.balanceOf(address(this)));\r\n        token.transfer(msg.sender, token.balanceOf(address(this)));\r\n    }\r\n\r\n    modifier onlyOwner() {\r\n        require(msg.sender == owner, \"only owner can access\");\r\n        _;\r\n    }\r\n}\r\n",
  "sourcePath": "C:\\Users\\KR799UV\\blockchain_poc\\NFTMarket\\server\\contracts\\Faucet.sol",
  "compiler": {
    "name": "solc",
    "version": "0.8.17+commit.8df45f5f.Emscripten.clang"
  },
  "schemaVersion": "3.4.11",
  "updatedAt": "2023-01-09T06:01:33.353Z",
  "devdoc": {
    "kind": "dev",
    "methods": {},
    "version": 1
  },
  "userdoc": {
    "kind": "user",
    "methods": {},
    "version": 1
  }
}