{
  "contractName": "MyNft",
  "abi": [
    {
      "inputs": [
        {
          "internalType": "address",
          "name": "_tokenAddress",
          "type": "address"
        }
      ],
      "stateMutability": "nonpayable",
      "type": "constructor"
    },
    {
      "anonymous": false,
      "inputs": [
        {
          "indexed": true,
          "internalType": "address",
          "name": "owner",
          "type": "address"
        },
        {
          "indexed": true,
          "internalType": "address",
          "name": "approved",
          "type": "address"
        },
        {
          "indexed": true,
          "internalType": "uint256",
          "name": "tokenId",
          "type": "uint256"
        }
      ],
      "name": "Approval",
      "type": "event"
    },
    {
      "anonymous": false,
      "inputs": [
        {
          "indexed": true,
          "internalType": "address",
          "name": "owner",
          "type": "address"
        },
        {
          "indexed": true,
          "internalType": "address",
          "name": "operator",
          "type": "address"
        },
        {
          "indexed": false,
          "internalType": "bool",
          "name": "approved",
          "type": "bool"
        }
      ],
      "name": "ApprovalForAll",
      "type": "event"
    },
    {
      "anonymous": false,
      "inputs": [
        {
          "indexed": true,
          "internalType": "address",
          "name": "previousOwner",
          "type": "address"
        },
        {
          "indexed": true,
          "internalType": "address",
          "name": "newOwner",
          "type": "address"
        }
      ],
      "name": "OwnershipTransferred",
      "type": "event"
    },
    {
      "anonymous": false,
      "inputs": [
        {
          "indexed": true,
          "internalType": "address",
          "name": "from",
          "type": "address"
        },
        {
          "indexed": true,
          "internalType": "address",
          "name": "to",
          "type": "address"
        },
        {
          "indexed": true,
          "internalType": "uint256",
          "name": "tokenId",
          "type": "uint256"
        }
      ],
      "name": "Transfer",
      "type": "event"
    },
    {
      "inputs": [
        {
          "internalType": "address",
          "name": "to",
          "type": "address"
        },
        {
          "internalType": "uint256",
          "name": "tokenId",
          "type": "uint256"
        }
      ],
      "name": "approve",
      "outputs": [],
      "stateMutability": "nonpayable",
      "type": "function"
    },
    {
      "inputs": [
        {
          "internalType": "address",
          "name": "owner",
          "type": "address"
        }
      ],
      "name": "balanceOf",
      "outputs": [
        {
          "internalType": "uint256",
          "name": "",
          "type": "uint256"
        }
      ],
      "stateMutability": "view",
      "type": "function",
      "constant": true
    },
    {
      "inputs": [
        {
          "internalType": "uint256",
          "name": "tokenId",
          "type": "uint256"
        }
      ],
      "name": "getApproved",
      "outputs": [
        {
          "internalType": "address",
          "name": "",
          "type": "address"
        }
      ],
      "stateMutability": "view",
      "type": "function",
      "constant": true
    },
    {
      "inputs": [
        {
          "internalType": "address",
          "name": "owner",
          "type": "address"
        },
        {
          "internalType": "address",
          "name": "operator",
          "type": "address"
        }
      ],
      "name": "isApprovedForAll",
      "outputs": [
        {
          "internalType": "bool",
          "name": "",
          "type": "bool"
        }
      ],
      "stateMutability": "view",
      "type": "function",
      "constant": true
    },
    {
      "inputs": [],
      "name": "name",
      "outputs": [
        {
          "internalType": "string",
          "name": "",
          "type": "string"
        }
      ],
      "stateMutability": "view",
      "type": "function",
      "constant": true
    },
    {
      "inputs": [],
      "name": "owner",
      "outputs": [
        {
          "internalType": "address",
          "name": "",
          "type": "address"
        }
      ],
      "stateMutability": "view",
      "type": "function",
      "constant": true
    },
    {
      "inputs": [
        {
          "internalType": "uint256",
          "name": "tokenId",
          "type": "uint256"
        }
      ],
      "name": "ownerOf",
      "outputs": [
        {
          "internalType": "address",
          "name": "",
          "type": "address"
        }
      ],
      "stateMutability": "view",
      "type": "function",
      "constant": true
    },
    {
      "inputs": [],
      "name": "renounceOwnership",
      "outputs": [],
      "stateMutability": "nonpayable",
      "type": "function"
    },
    {
      "inputs": [
        {
          "internalType": "address",
          "name": "from",
          "type": "address"
        },
        {
          "internalType": "address",
          "name": "to",
          "type": "address"
        },
        {
          "internalType": "uint256",
          "name": "tokenId",
          "type": "uint256"
        }
      ],
      "name": "safeTransferFrom",
      "outputs": [],
      "stateMutability": "nonpayable",
      "type": "function"
    },
    {
      "inputs": [
        {
          "internalType": "address",
          "name": "from",
          "type": "address"
        },
        {
          "internalType": "address",
          "name": "to",
          "type": "address"
        },
        {
          "internalType": "uint256",
          "name": "tokenId",
          "type": "uint256"
        },
        {
          "internalType": "bytes",
          "name": "data",
          "type": "bytes"
        }
      ],
      "name": "safeTransferFrom",
      "outputs": [],
      "stateMutability": "nonpayable",
      "type": "function"
    },
    {
      "inputs": [
        {
          "internalType": "address",
          "name": "operator",
          "type": "address"
        },
        {
          "internalType": "bool",
          "name": "approved",
          "type": "bool"
        }
      ],
      "name": "setApprovalForAll",
      "outputs": [],
      "stateMutability": "nonpayable",
      "type": "function"
    },
    {
      "inputs": [
        {
          "internalType": "bytes4",
          "name": "interfaceId",
          "type": "bytes4"
        }
      ],
      "name": "supportsInterface",
      "outputs": [
        {
          "internalType": "bool",
          "name": "",
          "type": "bool"
        }
      ],
      "stateMutability": "view",
      "type": "function",
      "constant": true
    },
    {
      "inputs": [],
      "name": "symbol",
      "outputs": [
        {
          "internalType": "string",
          "name": "",
          "type": "string"
        }
      ],
      "stateMutability": "view",
      "type": "function",
      "constant": true
    },
    {
      "inputs": [],
      "name": "tokenAddress",
      "outputs": [
        {
          "internalType": "contract IERC20",
          "name": "",
          "type": "address"
        }
      ],
      "stateMutability": "view",
      "type": "function",
      "constant": true
    },
    {
      "inputs": [
        {
          "internalType": "uint256",
          "name": "tokenId",
          "type": "uint256"
        }
      ],
      "name": "tokenURI",
      "outputs": [
        {
          "internalType": "string",
          "name": "",
          "type": "string"
        }
      ],
      "stateMutability": "view",
      "type": "function",
      "constant": true
    },
    {
      "inputs": [
        {
          "internalType": "address",
          "name": "from",
          "type": "address"
        },
        {
          "internalType": "address",
          "name": "to",
          "type": "address"
        },
        {
          "internalType": "uint256",
          "name": "tokenId",
          "type": "uint256"
        }
      ],
      "name": "transferFrom",
      "outputs": [],
      "stateMutability": "nonpayable",
      "type": "function"
    },
    {
      "inputs": [
        {
          "internalType": "address",
          "name": "newOwner",
          "type": "address"
        }
      ],
      "name": "transferOwnership",
      "outputs": [],
      "stateMutability": "nonpayable",
      "type": "function"
    },
    {
      "inputs": [
        {
          "internalType": "address",
          "name": "_from",
          "type": "address"
        },
        {
          "internalType": "string",
          "name": "_owner",
          "type": "string"
        },
        {
          "internalType": "string",
          "name": "_name",
          "type": "string"
        },
        {
          "internalType": "string",
          "name": "_description",
          "type": "string"
        },
        {
          "internalType": "uint256",
          "name": "_price",
          "type": "uint256"
        }
      ],
      "name": "safeMint",
      "outputs": [
        {
          "internalType": "bool",
          "name": "",
          "type": "bool"
        }
      ],
      "stateMutability": "nonpayable",
      "type": "function"
    },
    {
      "inputs": [
        {
          "internalType": "string",
          "name": "owner",
          "type": "string"
        },
        {
          "internalType": "address",
          "name": "_to",
          "type": "address"
        },
        {
          "internalType": "uint256",
          "name": "indx",
          "type": "uint256"
        },
        {
          "internalType": "uint256",
          "name": "val",
          "type": "uint256"
        }
      ],
      "name": "buyProduct",
      "outputs": [
        {
          "internalType": "bool",
          "name": "",
          "type": "bool"
        }
      ],
      "stateMutability": "nonpayable",
      "type": "function"
    },
    {
      "inputs": [
        {
          "internalType": "string",
          "name": "owner",
          "type": "string"
        },
        {
          "internalType": "uint256",
          "name": "indx",
          "type": "uint256"
        },
        {
          "internalType": "uint256",
          "name": "val",
          "type": "uint256"
        }
      ],
      "name": "setProductPrice",
      "outputs": [
        {
          "internalType": "bool",
          "name": "",
          "type": "bool"
        }
      ],
      "stateMutability": "nonpayable",
      "type": "function"
    },
    {
      "inputs": [
        {
          "internalType": "string",
          "name": "_owner",
          "type": "string"
        }
      ],
      "name": "getProductByUser",
      "outputs": [
        {
          "components": [
            {
              "internalType": "string",
              "name": "name",
              "type": "string"
            },
            {
              "internalType": "string",
              "name": "description",
              "type": "string"
            },
            {
              "internalType": "address",
              "name": "owner",
              "type": "address"
            },
            {
              "internalType": "uint256",
              "name": "price",
              "type": "uint256"
            }
          ],
          "internalType": "struct MyNft.Product[]",
          "name": "",
          "type": "tuple[]"
        }
      ],
      "stateMutability": "view",
      "type": "function",
      "constant": true
    }
  ],
  "bytecode": "0x60806040523480156200001157600080fd5b5060405162003f9d38038062003f9d833981810160405281019062000037919062000269565b6040518060400160405280600581526020017f4d794e66740000000000000000000000000000000000000000000000000000008152506040518060400160405280600381526020017f4d545800000000000000000000000000000000000000000000000000000000008152508160009081620000b4919062000515565b508060019081620000c6919062000515565b505050620000e9620000dd6200013160201b60201c565b6200013960201b60201c565b80600760006101000a81548173ffffffffffffffffffffffffffffffffffffffff021916908373ffffffffffffffffffffffffffffffffffffffff16021790555050620005fc565b600033905090565b6000600660009054906101000a900473ffffffffffffffffffffffffffffffffffffffff16905081600660006101000a81548173ffffffffffffffffffffffffffffffffffffffff021916908373ffffffffffffffffffffffffffffffffffffffff1602179055508173ffffffffffffffffffffffffffffffffffffffff168173ffffffffffffffffffffffffffffffffffffffff167f8be0079c531659141344cd1fd0a4f28419497f9722a3daafe3b4186f6b6457e060405160405180910390a35050565b600080fd5b600073ffffffffffffffffffffffffffffffffffffffff82169050919050565b6000620002318262000204565b9050919050565b620002438162000224565b81146200024f57600080fd5b50565b600081519050620002638162000238565b92915050565b600060208284031215620002825762000281620001ff565b5b6000620002928482850162000252565b91505092915050565b600081519050919050565b7f4e487b7100000000000000000000000000000000000000000000000000000000600052604160045260246000fd5b7f4e487b7100000000000000000000000000000000000000000000000000000000600052602260045260246000fd5b600060028204905060018216806200031d57607f821691505b602082108103620003335762000332620002d5565b5b50919050565b60008190508160005260206000209050919050565b60006020601f8301049050919050565b600082821b905092915050565b6000600883026200039d7fffffffffffffffffffffffffffffffffffffffffffffffffffffffffffffffff826200035e565b620003a986836200035e565b95508019841693508086168417925050509392505050565b6000819050919050565b6000819050919050565b6000620003f6620003f0620003ea84620003c1565b620003cb565b620003c1565b9050919050565b6000819050919050565b6200041283620003d5565b6200042a6200042182620003fd565b8484546200036b565b825550505050565b600090565b6200044162000432565b6200044e81848462000407565b505050565b5b8181101562000476576200046a60008262000437565b60018101905062000454565b5050565b601f821115620004c5576200048f8162000339565b6200049a846200034e565b81016020851015620004aa578190505b620004c2620004b9856200034e565b83018262000453565b50505b505050565b600082821c905092915050565b6000620004ea60001984600802620004ca565b1980831691505092915050565b6000620005058383620004d7565b9150826002028217905092915050565b62000520826200029b565b67ffffffffffffffff8111156200053c576200053b620002a6565b5b62000548825462000304565b620005558282856200047a565b600060209050601f8311600181146200058d576000841562000578578287015190505b620005848582620004f7565b865550620005f4565b601f1984166200059d8662000339565b60005b82811015620005c757848901518255600182019150602085019450602081019050620005a0565b86831015620005e75784890151620005e3601f891682620004d7565b8355505b6001600288020188555050505b505050505050565b613991806200060c6000396000f3fe608060405234801561001057600080fd5b50600436106101375760003560e01c8063715018a6116100b8578063b03ad3b21161007c578063b03ad3b21461034e578063b88d4fde1461037e578063c75b7cb61461039a578063c87b56dd146103ca578063e985e9c5146103fa578063f2fde38b1461042a57610137565b8063715018a6146102ce5780638da5cb5b146102d857806395d89b41146102f65780639d76ea5814610314578063a22cb4651461033257610137565b806332ce3c73116100ff57806332ce3c73146101f257806342842e0e146102225780634b09c5d91461023e5780636352211e1461026e57806370a082311461029e57610137565b806301ffc9a71461013c57806306fdde031461016c578063081812fc1461018a578063095ea7b3146101ba57806323b872dd146101d6575b600080fd5b6101566004803603810190610151919061224a565b610446565b6040516101639190612292565b60405180910390f35b610174610528565b604051610181919061233d565b60405180910390f35b6101a4600480360381019061019f9190612395565b6105ba565b6040516101b19190612403565b60405180910390f35b6101d460048036038101906101cf919061244a565b610600565b005b6101f060048036038101906101eb919061248a565b610717565b005b61020c60048036038101906102079190612612565b610777565b6040516102199190612292565b60405180910390f35b61023c6004803603810190610237919061248a565b610905565b005b61025860048036038101906102539190612695565b610925565b6040516102659190612292565b60405180910390f35b61028860048036038101906102839190612395565b610990565b6040516102959190612403565b60405180910390f35b6102b860048036038101906102b39190612704565b610a16565b6040516102c59190612740565b60405180910390f35b6102d6610acd565b005b6102e0610ae1565b6040516102ed9190612403565b60405180910390f35b6102fe610b0b565b60405161030b919061233d565b60405180910390f35b61031c610b9d565b60405161032991906127ba565b60405180910390f35b61034c60048036038101906103479190612801565b610bc3565b005b61036860048036038101906103639190612841565b610bd9565b6040516103759190612292565b60405180910390f35b610398600480360381019061039391906129b1565b610db4565b005b6103b460048036038101906103af9190612a34565b610e16565b6040516103c19190612c11565b60405180910390f35b6103e460048036038101906103df9190612395565b611017565b6040516103f1919061233d565b60405180910390f35b610414600480360381019061040f9190612c33565b61107f565b6040516104219190612292565b60405180910390f35b610444600480360381019061043f9190612704565b611113565b005b60007f80ac58cd000000000000000000000000000000000000000000000000000000007bffffffffffffffffffffffffffffffffffffffffffffffffffffffff1916827bffffffffffffffffffffffffffffffffffffffffffffffffffffffff1916148061051157507f5b5e139f000000000000000000000000000000000000000000000000000000007bffffffffffffffffffffffffffffffffffffffffffffffffffffffff1916827bffffffffffffffffffffffffffffffffffffffffffffffffffffffff1916145b80610521575061052082611196565b5b9050919050565b60606000805461053790612ca2565b80601f016020809104026020016040519081016040528092919081815260200182805461056390612ca2565b80156105b05780601f10610585576101008083540402835291602001916105b0565b820191906000526020600020905b81548152906001019060200180831161059357829003601f168201915b5050505050905090565b60006105c582611200565b6004600083815260200190815260200160002060009054906101000a900473ffffffffffffffffffffffffffffffffffffffff169050919050565b600061060b82610990565b90508073ffffffffffffffffffffffffffffffffffffffff168373ffffffffffffffffffffffffffffffffffffffff160361067b576040517f08c379a000000000000000000000000000000000000000000000000000000000815260040161067290612d45565b60405180910390fd5b8073ffffffffffffffffffffffffffffffffffffffff1661069a61124b565b73ffffffffffffffffffffffffffffffffffffffff1614806106c957506106c8816106c361124b565b61107f565b5b610708576040517f08c379a00000000000000000000000000000000000000000000000000000000081526004016106ff90612dd7565b60405180910390fd5b6107128383611253565b505050565b61072861072261124b565b8261130c565b610767576040517f08c379a000000000000000000000000000000000000000000000000000000000815260040161075e90612e69565b60405180910390fd5b6107728383836113a1565b505050565b60008060088660405161078a9190612ec5565b908152602001604051809103902084815481106107aa576107a9612edc565b5b906000526020600020906004020190508281600301541115610801576040517f08c379a00000000000000000000000000000000000000000000000000000000081526004016107f890612f57565b60405180910390fd5b848160020160006101000a81548173ffffffffffffffffffffffffffffffffffffffff021916908373ffffffffffffffffffffffffffffffffffffffff160217905550600760009054906101000a900473ffffffffffffffffffffffffffffffffffffffff1673ffffffffffffffffffffffffffffffffffffffff1663a9059cbb86670de0b6b3a7640000866108979190612fa6565b6040518363ffffffff1660e01b81526004016108b4929190612fe8565b6020604051808303816000875af11580156108d3573d6000803e3d6000fd5b505050506040513d601f19601f820116820180604052508101906108f79190613026565b506001915050949350505050565b61092083838360405180602001604052806000815250610db4565b505050565b6000806008856040516109389190612ec5565b9081526020016040518091039020848154811061095857610957612edc565b5b90600052602060002090600402019050670de0b6b3a76400008361097c9190612fa6565b816003018190555060019150509392505050565b60008061099c8361169a565b9050600073ffffffffffffffffffffffffffffffffffffffff168173ffffffffffffffffffffffffffffffffffffffff1603610a0d576040517f08c379a0000000000000000000000000000000000000000000000000000000008152600401610a049061309f565b60405180910390fd5b80915050919050565b60008073ffffffffffffffffffffffffffffffffffffffff168273ffffffffffffffffffffffffffffffffffffffff1603610a86576040517f08c379a0000000000000000000000000000000000000000000000000000000008152600401610a7d90613131565b60405180910390fd5b600360008373ffffffffffffffffffffffffffffffffffffffff1673ffffffffffffffffffffffffffffffffffffffff168152602001908152602001600020549050919050565b610ad56116d7565b610adf6000611755565b565b6000600660009054906101000a900473ffffffffffffffffffffffffffffffffffffffff16905090565b606060018054610b1a90612ca2565b80601f0160208091040260200160405190810160405280929190818152602001828054610b4690612ca2565b8015610b935780601f10610b6857610100808354040283529160200191610b93565b820191906000526020600020905b815481529060010190602001808311610b7657829003601f168201915b5050505050905090565b600760009054906101000a900473ffffffffffffffffffffffffffffffffffffffff1681565b610bd5610bce61124b565b838361181b565b5050565b6000600760009054906101000a900473ffffffffffffffffffffffffffffffffffffffff1673ffffffffffffffffffffffffffffffffffffffff1663a9059cbb87670de0b6b3a764000085610c2e9190612fa6565b6040518363ffffffff1660e01b8152600401610c4b929190612fe8565b6020604051808303816000875af1158015610c6a573d6000803e3d6000fd5b505050506040513d601f19601f82011682018060405250810190610c8e9190613026565b50600060405180608001604052808681526020018581526020018873ffffffffffffffffffffffffffffffffffffffff168152602001848152509050600886604051610cda9190612ec5565b90815260200160405180910390208190806001815401808255809150506001900390600052602060002090600402016000909190919091506000820151816000019081610d2791906132f3565b506020820151816001019081610d3d91906132f3565b5060408201518160020160006101000a81548173ffffffffffffffffffffffffffffffffffffffff021916908373ffffffffffffffffffffffffffffffffffffffff160217905550606082015181600301555050610d9b6009611987565b610da687600161199d565b600191505095945050505050565b610dc5610dbf61124b565b8361130c565b610e04576040517f08c379a0000000000000000000000000000000000000000000000000000000008152600401610dfb90612e69565b60405180910390fd5b610e10848484846119bb565b50505050565b6060600882604051610e289190612ec5565b9081526020016040518091039020805480602002602001604051908101604052809291908181526020016000905b8282101561100c5783829060005260206000209060040201604051806080016040529081600082018054610e8990612ca2565b80601f0160208091040260200160405190810160405280929190818152602001828054610eb590612ca2565b8015610f025780601f10610ed757610100808354040283529160200191610f02565b820191906000526020600020905b815481529060010190602001808311610ee557829003601f168201915b50505050508152602001600182018054610f1b90612ca2565b80601f0160208091040260200160405190810160405280929190818152602001828054610f4790612ca2565b8015610f945780601f10610f6957610100808354040283529160200191610f94565b820191906000526020600020905b815481529060010190602001808311610f7757829003601f168201915b505050505081526020016002820160009054906101000a900473ffffffffffffffffffffffffffffffffffffffff1673ffffffffffffffffffffffffffffffffffffffff1673ffffffffffffffffffffffffffffffffffffffff16815260200160038201548152505081526020019060010190610e56565b505050509050919050565b606061102282611200565b600061102c611a17565b9050600081511161104c5760405180602001604052806000815250611077565b8061105684611a2e565b6040516020016110679291906133c5565b6040516020818303038152906040525b915050919050565b6000600560008473ffffffffffffffffffffffffffffffffffffffff1673ffffffffffffffffffffffffffffffffffffffff16815260200190815260200160002060008373ffffffffffffffffffffffffffffffffffffffff1673ffffffffffffffffffffffffffffffffffffffff16815260200190815260200160002060009054906101000a900460ff16905092915050565b61111b6116d7565b600073ffffffffffffffffffffffffffffffffffffffff168173ffffffffffffffffffffffffffffffffffffffff160361118a576040517f08c379a00000000000000000000000000000000000000000000000000000000081526004016111819061345b565b60405180910390fd5b61119381611755565b50565b60007f01ffc9a7000000000000000000000000000000000000000000000000000000007bffffffffffffffffffffffffffffffffffffffffffffffffffffffff1916827bffffffffffffffffffffffffffffffffffffffffffffffffffffffff1916149050919050565b61120981611afc565b611248576040517f08c379a000000000000000000000000000000000000000000000000000000000815260040161123f9061309f565b60405180910390fd5b50565b600033905090565b816004600083815260200190815260200160002060006101000a81548173ffffffffffffffffffffffffffffffffffffffff021916908373ffffffffffffffffffffffffffffffffffffffff160217905550808273ffffffffffffffffffffffffffffffffffffffff166112c683610990565b73ffffffffffffffffffffffffffffffffffffffff167f8c5be1e5ebec7d5bd14f71427d1e84f3dd0314c0f7b2291e5b200ac8c7c3b92560405160405180910390a45050565b60008061131883610990565b90508073ffffffffffffffffffffffffffffffffffffffff168473ffffffffffffffffffffffffffffffffffffffff16148061135a5750611359818561107f565b5b8061139857508373ffffffffffffffffffffffffffffffffffffffff16611380846105ba565b73ffffffffffffffffffffffffffffffffffffffff16145b91505092915050565b8273ffffffffffffffffffffffffffffffffffffffff166113c182610990565b73ffffffffffffffffffffffffffffffffffffffff1614611417576040517f08c379a000000000000000000000000000000000000000000000000000000000815260040161140e906134ed565b60405180910390fd5b600073ffffffffffffffffffffffffffffffffffffffff168273ffffffffffffffffffffffffffffffffffffffff1603611486576040517f08c379a000000000000000000000000000000000000000000000000000000000815260040161147d9061357f565b60405180910390fd5b6114938383836001611b3d565b8273ffffffffffffffffffffffffffffffffffffffff166114b382610990565b73ffffffffffffffffffffffffffffffffffffffff1614611509576040517f08c379a0000000000000000000000000000000000000000000000000000000008152600401611500906134ed565b60405180910390fd5b6004600082815260200190815260200160002060006101000a81549073ffffffffffffffffffffffffffffffffffffffff02191690556001600360008573ffffffffffffffffffffffffffffffffffffffff1673ffffffffffffffffffffffffffffffffffffffff168152602001908152602001600020600082825403925050819055506001600360008473ffffffffffffffffffffffffffffffffffffffff1673ffffffffffffffffffffffffffffffffffffffff16815260200190815260200160002060008282540192505081905550816002600083815260200190815260200160002060006101000a81548173ffffffffffffffffffffffffffffffffffffffff021916908373ffffffffffffffffffffffffffffffffffffffff160217905550808273ffffffffffffffffffffffffffffffffffffffff168473ffffffffffffffffffffffffffffffffffffffff167fddf252ad1be2c89b69c2b068fc378daa952ba7f163c4a11628f55a4df523b3ef60405160405180910390a46116958383836001611c63565b505050565b60006002600083815260200190815260200160002060009054906101000a900473ffffffffffffffffffffffffffffffffffffffff169050919050565b6116df61124b565b73ffffffffffffffffffffffffffffffffffffffff166116fd610ae1565b73ffffffffffffffffffffffffffffffffffffffff1614611753576040517f08c379a000000000000000000000000000000000000000000000000000000000815260040161174a906135eb565b60405180910390fd5b565b6000600660009054906101000a900473ffffffffffffffffffffffffffffffffffffffff16905081600660006101000a81548173ffffffffffffffffffffffffffffffffffffffff021916908373ffffffffffffffffffffffffffffffffffffffff1602179055508173ffffffffffffffffffffffffffffffffffffffff168173ffffffffffffffffffffffffffffffffffffffff167f8be0079c531659141344cd1fd0a4f28419497f9722a3daafe3b4186f6b6457e060405160405180910390a35050565b8173ffffffffffffffffffffffffffffffffffffffff168373ffffffffffffffffffffffffffffffffffffffff1603611889576040517f08c379a000000000000000000000000000000000000000000000000000000000815260040161188090613657565b60405180910390fd5b80600560008573ffffffffffffffffffffffffffffffffffffffff1673ffffffffffffffffffffffffffffffffffffffff16815260200190815260200160002060008473ffffffffffffffffffffffffffffffffffffffff1673ffffffffffffffffffffffffffffffffffffffff16815260200190815260200160002060006101000a81548160ff0219169083151502179055508173ffffffffffffffffffffffffffffffffffffffff168373ffffffffffffffffffffffffffffffffffffffff167f17307eab39ab6107e8899845ad3d59bd9653f200f220920489ca2b5937696c318360405161197a9190612292565b60405180910390a3505050565b6001816000016000828254019250508190555050565b6119b7828260405180602001604052806000815250611c69565b5050565b6119c68484846113a1565b6119d284848484611cc4565b611a11576040517f08c379a0000000000000000000000000000000000000000000000000000000008152600401611a08906136e9565b60405180910390fd5b50505050565b606060405180602001604052806000815250905090565b606060006001611a3d84611e4b565b01905060008167ffffffffffffffff811115611a5c57611a5b6124e7565b5b6040519080825280601f01601f191660200182016040528015611a8e5781602001600182028036833780820191505090505b509050600082602001820190505b600115611af1578080600190039150507f3031323334353637383961626364656600000000000000000000000000000000600a86061a8153600a8581611ae557611ae4613709565b5b04945060008503611a9c575b819350505050919050565b60008073ffffffffffffffffffffffffffffffffffffffff16611b1e8361169a565b73ffffffffffffffffffffffffffffffffffffffff1614159050919050565b6001811115611c5d57600073ffffffffffffffffffffffffffffffffffffffff168473ffffffffffffffffffffffffffffffffffffffff1614611bd15780600360008673ffffffffffffffffffffffffffffffffffffffff1673ffffffffffffffffffffffffffffffffffffffff1681526020019081526020016000206000828254611bc99190613738565b925050819055505b600073ffffffffffffffffffffffffffffffffffffffff168373ffffffffffffffffffffffffffffffffffffffff1614611c5c5780600360008573ffffffffffffffffffffffffffffffffffffffff1673ffffffffffffffffffffffffffffffffffffffff1681526020019081526020016000206000828254611c54919061376c565b925050819055505b5b50505050565b50505050565b611c738383611f9e565b611c806000848484611cc4565b611cbf576040517f08c379a0000000000000000000000000000000000000000000000000000000008152600401611cb6906136e9565b60405180910390fd5b505050565b6000611ce58473ffffffffffffffffffffffffffffffffffffffff166121bb565b15611e3e578373ffffffffffffffffffffffffffffffffffffffff1663150b7a02611d0e61124b565b8786866040518563ffffffff1660e01b8152600401611d3094939291906137f5565b6020604051808303816000875af1925050508015611d6c57506040513d601f19601f82011682018060405250810190611d699190613856565b60015b611dee573d8060008114611d9c576040519150601f19603f3d011682016040523d82523d6000602084013e611da1565b606091505b506000815103611de6576040517f08c379a0000000000000000000000000000000000000000000000000000000008152600401611ddd906136e9565b60405180910390fd5b805181602001fd5b63150b7a0260e01b7bffffffffffffffffffffffffffffffffffffffffffffffffffffffff1916817bffffffffffffffffffffffffffffffffffffffffffffffffffffffff191614915050611e43565b600190505b949350505050565b600080600090507a184f03e93ff9f4daa797ed6e38ed64bf6a1f0100000000000000008310611ea9577a184f03e93ff9f4daa797ed6e38ed64bf6a1f0100000000000000008381611e9f57611e9e613709565b5b0492506040810190505b6d04ee2d6d415b85acef81000000008310611ee6576d04ee2d6d415b85acef81000000008381611edc57611edb613709565b5b0492506020810190505b662386f26fc100008310611f1557662386f26fc100008381611f0b57611f0a613709565b5b0492506010810190505b6305f5e1008310611f3e576305f5e1008381611f3457611f33613709565b5b0492506008810190505b6127108310611f63576127108381611f5957611f58613709565b5b0492506004810190505b60648310611f865760648381611f7c57611f7b613709565b5b0492506002810190505b600a8310611f95576001810190505b80915050919050565b600073ffffffffffffffffffffffffffffffffffffffff168273ffffffffffffffffffffffffffffffffffffffff160361200d576040517f08c379a0000000000000000000000000000000000000000000000000000000008152600401612004906138cf565b60405180910390fd5b61201681611afc565b15612056576040517f08c379a000000000000000000000000000000000000000000000000000000000815260040161204d9061393b565b60405180910390fd5b612064600083836001611b3d565b61206d81611afc565b156120ad576040517f08c379a00000000000000000000000000000000000000000000000000000000081526004016120a49061393b565b60405180910390fd5b6001600360008473ffffffffffffffffffffffffffffffffffffffff1673ffffffffffffffffffffffffffffffffffffffff16815260200190815260200160002060008282540192505081905550816002600083815260200190815260200160002060006101000a81548173ffffffffffffffffffffffffffffffffffffffff021916908373ffffffffffffffffffffffffffffffffffffffff160217905550808273ffffffffffffffffffffffffffffffffffffffff16600073ffffffffffffffffffffffffffffffffffffffff167fddf252ad1be2c89b69c2b068fc378daa952ba7f163c4a11628f55a4df523b3ef60405160405180910390a46121b7600083836001611c63565b5050565b6000808273ffffffffffffffffffffffffffffffffffffffff163b119050919050565b6000604051905090565b600080fd5b600080fd5b60007fffffffff0000000000000000000000000000000000000000000000000000000082169050919050565b612227816121f2565b811461223257600080fd5b50565b6000813590506122448161221e565b92915050565b6000602082840312156122605761225f6121e8565b5b600061226e84828501612235565b91505092915050565b60008115159050919050565b61228c81612277565b82525050565b60006020820190506122a76000830184612283565b92915050565b600081519050919050565b600082825260208201905092915050565b60005b838110156122e75780820151818401526020810190506122cc565b60008484015250505050565b6000601f19601f8301169050919050565b600061230f826122ad565b61231981856122b8565b93506123298185602086016122c9565b612332816122f3565b840191505092915050565b600060208201905081810360008301526123578184612304565b905092915050565b6000819050919050565b6123728161235f565b811461237d57600080fd5b50565b60008135905061238f81612369565b92915050565b6000602082840312156123ab576123aa6121e8565b5b60006123b984828501612380565b91505092915050565b600073ffffffffffffffffffffffffffffffffffffffff82169050919050565b60006123ed826123c2565b9050919050565b6123fd816123e2565b82525050565b600060208201905061241860008301846123f4565b92915050565b612427816123e2565b811461243257600080fd5b50565b6000813590506124448161241e565b92915050565b60008060408385031215612461576124606121e8565b5b600061246f85828601612435565b925050602061248085828601612380565b9150509250929050565b6000806000606084860312156124a3576124a26121e8565b5b60006124b186828701612435565b93505060206124c286828701612435565b92505060406124d386828701612380565b9150509250925092565b600080fd5b600080fd5b7f4e487b7100000000000000000000000000000000000000000000000000000000600052604160045260246000fd5b61251f826122f3565b810181811067ffffffffffffffff8211171561253e5761253d6124e7565b5b80604052505050565b60006125516121de565b905061255d8282612516565b919050565b600067ffffffffffffffff82111561257d5761257c6124e7565b5b612586826122f3565b9050602081019050919050565b82818337600083830152505050565b60006125b56125b084612562565b612547565b9050828152602081018484840111156125d1576125d06124e2565b5b6125dc848285612593565b509392505050565b600082601f8301126125f9576125f86124dd565b5b81356126098482602086016125a2565b91505092915050565b6000806000806080858703121561262c5761262b6121e8565b5b600085013567ffffffffffffffff81111561264a576126496121ed565b5b612656878288016125e4565b945050602061266787828801612435565b935050604061267887828801612380565b925050606061268987828801612380565b91505092959194509250565b6000806000606084860312156126ae576126ad6121e8565b5b600084013567ffffffffffffffff8111156126cc576126cb6121ed565b5b6126d8868287016125e4565b93505060206126e986828701612380565b92505060406126fa86828701612380565b9150509250925092565b60006020828403121561271a576127196121e8565b5b600061272884828501612435565b91505092915050565b61273a8161235f565b82525050565b60006020820190506127556000830184612731565b92915050565b6000819050919050565b600061278061277b612776846123c2565b61275b565b6123c2565b9050919050565b600061279282612765565b9050919050565b60006127a482612787565b9050919050565b6127b481612799565b82525050565b60006020820190506127cf60008301846127ab565b92915050565b6127de81612277565b81146127e957600080fd5b50565b6000813590506127fb816127d5565b92915050565b60008060408385031215612818576128176121e8565b5b600061282685828601612435565b9250506020612837858286016127ec565b9150509250929050565b600080600080600060a0868803121561285d5761285c6121e8565b5b600061286b88828901612435565b955050602086013567ffffffffffffffff81111561288c5761288b6121ed565b5b612898888289016125e4565b945050604086013567ffffffffffffffff8111156128b9576128b86121ed565b5b6128c5888289016125e4565b935050606086013567ffffffffffffffff8111156128e6576128e56121ed565b5b6128f2888289016125e4565b925050608061290388828901612380565b9150509295509295909350565b600067ffffffffffffffff82111561292b5761292a6124e7565b5b612934826122f3565b9050602081019050919050565b600061295461294f84612910565b612547565b9050828152602081018484840111156129705761296f6124e2565b5b61297b848285612593565b509392505050565b600082601f830112612998576129976124dd565b5b81356129a8848260208601612941565b91505092915050565b600080600080608085870312156129cb576129ca6121e8565b5b60006129d987828801612435565b94505060206129ea87828801612435565b93505060406129fb87828801612380565b925050606085013567ffffffffffffffff811115612a1c57612a1b6121ed565b5b612a2887828801612983565b91505092959194509250565b600060208284031215612a4a57612a496121e8565b5b600082013567ffffffffffffffff811115612a6857612a676121ed565b5b612a74848285016125e4565b91505092915050565b600081519050919050565b600082825260208201905092915050565b6000819050602082019050919050565b600082825260208201905092915050565b6000612ac5826122ad565b612acf8185612aa9565b9350612adf8185602086016122c9565b612ae8816122f3565b840191505092915050565b612afc816123e2565b82525050565b612b0b8161235f565b82525050565b60006080830160008301518482036000860152612b2e8282612aba565b91505060208301518482036020860152612b488282612aba565b9150506040830151612b5d6040860182612af3565b506060830151612b706060860182612b02565b508091505092915050565b6000612b878383612b11565b905092915050565b6000602082019050919050565b6000612ba782612a7d565b612bb18185612a88565b935083602082028501612bc385612a99565b8060005b85811015612bff5784840389528151612be08582612b7b565b9450612beb83612b8f565b925060208a01995050600181019050612bc7565b50829750879550505050505092915050565b60006020820190508181036000830152612c2b8184612b9c565b905092915050565b60008060408385031215612c4a57612c496121e8565b5b6000612c5885828601612435565b9250506020612c6985828601612435565b9150509250929050565b7f4e487b7100000000000000000000000000000000000000000000000000000000600052602260045260246000fd5b60006002820490506001821680612cba57607f821691505b602082108103612ccd57612ccc612c73565b5b50919050565b7f4552433732313a20617070726f76616c20746f2063757272656e74206f776e6560008201527f7200000000000000000000000000000000000000000000000000000000000000602082015250565b6000612d2f6021836122b8565b9150612d3a82612cd3565b604082019050919050565b60006020820190508181036000830152612d5e81612d22565b9050919050565b7f4552433732313a20617070726f76652063616c6c6572206973206e6f7420746f60008201527f6b656e206f776e6572206f7220617070726f76656420666f7220616c6c000000602082015250565b6000612dc1603d836122b8565b9150612dcc82612d65565b604082019050919050565b60006020820190508181036000830152612df081612db4565b9050919050565b7f4552433732313a2063616c6c6572206973206e6f7420746f6b656e206f776e6560008201527f72206f7220617070726f76656400000000000000000000000000000000000000602082015250565b6000612e53602d836122b8565b9150612e5e82612df7565b604082019050919050565b60006020820190508181036000830152612e8281612e46565b9050919050565b600081905092915050565b6000612e9f826122ad565b612ea98185612e89565b9350612eb98185602086016122c9565b80840191505092915050565b6000612ed18284612e94565b915081905092915050565b7f4e487b7100000000000000000000000000000000000000000000000000000000600052603260045260246000fd5b7f496e73756666696369656e7420616d6f756e7400000000000000000000000000600082015250565b6000612f416013836122b8565b9150612f4c82612f0b565b602082019050919050565b60006020820190508181036000830152612f7081612f34565b9050919050565b7f4e487b7100000000000000000000000000000000000000000000000000000000600052601160045260246000fd5b6000612fb18261235f565b9150612fbc8361235f565b9250828202612fca8161235f565b91508282048414831517612fe157612fe0612f77565b5b5092915050565b6000604082019050612ffd60008301856123f4565b61300a6020830184612731565b9392505050565b600081519050613020816127d5565b92915050565b60006020828403121561303c5761303b6121e8565b5b600061304a84828501613011565b91505092915050565b7f4552433732313a20696e76616c696420746f6b656e2049440000000000000000600082015250565b60006130896018836122b8565b915061309482613053565b602082019050919050565b600060208201905081810360008301526130b88161307c565b9050919050565b7f4552433732313a2061646472657373207a65726f206973206e6f74206120766160008201527f6c6964206f776e65720000000000000000000000000000000000000000000000602082015250565b600061311b6029836122b8565b9150613126826130bf565b604082019050919050565b6000602082019050818103600083015261314a8161310e565b9050919050565b60008190508160005260206000209050919050565b60006020601f8301049050919050565b600082821b905092915050565b6000600883026131b37fffffffffffffffffffffffffffffffffffffffffffffffffffffffffffffffff82613176565b6131bd8683613176565b95508019841693508086168417925050509392505050565b60006131f06131eb6131e68461235f565b61275b565b61235f565b9050919050565b6000819050919050565b61320a836131d5565b61321e613216826131f7565b848454613183565b825550505050565b600090565b613233613226565b61323e818484613201565b505050565b5b818110156132625761325760008261322b565b600181019050613244565b5050565b601f8211156132a75761327881613151565b61328184613166565b81016020851015613290578190505b6132a461329c85613166565b830182613243565b50505b505050565b600082821c905092915050565b60006132ca600019846008026132ac565b1980831691505092915050565b60006132e383836132b9565b9150826002028217905092915050565b6132fc826122ad565b67ffffffffffffffff811115613315576133146124e7565b5b61331f8254612ca2565b61332a828285613266565b600060209050601f83116001811461335d576000841561334b578287015190505b61335585826132d7565b8655506133bd565b601f19841661336b86613151565b60005b828110156133935784890151825560018201915060208501945060208101905061336e565b868310156133b057848901516133ac601f8916826132b9565b8355505b6001600288020188555050505b505050505050565b60006133d18285612e94565b91506133dd8284612e94565b91508190509392505050565b7f4f776e61626c653a206e6577206f776e657220697320746865207a65726f206160008201527f6464726573730000000000000000000000000000000000000000000000000000602082015250565b60006134456026836122b8565b9150613450826133e9565b604082019050919050565b6000602082019050818103600083015261347481613438565b9050919050565b7f4552433732313a207472616e736665722066726f6d20696e636f72726563742060008201527f6f776e6572000000000000000000000000000000000000000000000000000000602082015250565b60006134d76025836122b8565b91506134e28261347b565b604082019050919050565b60006020820190508181036000830152613506816134ca565b9050919050565b7f4552433732313a207472616e7366657220746f20746865207a65726f2061646460008201527f7265737300000000000000000000000000000000000000000000000000000000602082015250565b60006135696024836122b8565b91506135748261350d565b604082019050919050565b600060208201905081810360008301526135988161355c565b9050919050565b7f4f776e61626c653a2063616c6c6572206973206e6f7420746865206f776e6572600082015250565b60006135d56020836122b8565b91506135e08261359f565b602082019050919050565b60006020820190508181036000830152613604816135c8565b9050919050565b7f4552433732313a20617070726f766520746f2063616c6c657200000000000000600082015250565b60006136416019836122b8565b915061364c8261360b565b602082019050919050565b6000602082019050818103600083015261367081613634565b9050919050565b7f4552433732313a207472616e7366657220746f206e6f6e20455243373231526560008201527f63656976657220696d706c656d656e7465720000000000000000000000000000602082015250565b60006136d36032836122b8565b91506136de82613677565b604082019050919050565b60006020820190508181036000830152613702816136c6565b9050919050565b7f4e487b7100000000000000000000000000000000000000000000000000000000600052601260045260246000fd5b60006137438261235f565b915061374e8361235f565b925082820390508181111561376657613765612f77565b5b92915050565b60006137778261235f565b91506137828361235f565b925082820190508082111561379a57613799612f77565b5b92915050565b600081519050919050565b600082825260208201905092915050565b60006137c7826137a0565b6137d181856137ab565b93506137e18185602086016122c9565b6137ea816122f3565b840191505092915050565b600060808201905061380a60008301876123f4565b61381760208301866123f4565b6138246040830185612731565b818103606083015261383681846137bc565b905095945050505050565b6000815190506138508161221e565b92915050565b60006020828403121561386c5761386b6121e8565b5b600061387a84828501613841565b91505092915050565b7f4552433732313a206d696e7420746f20746865207a65726f2061646472657373600082015250565b60006138b96020836122b8565b91506138c482613883565b602082019050919050565b600060208201905081810360008301526138e8816138ac565b9050919050565b7f4552433732313a20746f6b656e20616c7265616479206d696e74656400000000600082015250565b6000613925601c836122b8565b9150613930826138ef565b602082019050919050565b6000602082019050818103600083015261395481613918565b905091905056fea26469706673582212206a4a955e08021e9c778c9ef8b8869482fc553d510302f402a4c6080e493a79c964736f6c63430008110033",
  "immutableReferences": {},
  "source": "// SPDX-License-Identifier: MIT\r\n\r\npragma solidity ^0.8.0;\r\n\r\nimport \"@openzeppelin/contracts/token/ERC20/IERC20.sol\";\r\nimport \"@openzeppelin/contracts/token/ERC721/ERC721.sol\";\r\nimport \"@openzeppelin/contracts/access/Ownable.sol\";\r\nimport \"@openzeppelin/contracts/utils/Counters.sol\";\r\n\r\n\r\ncontract MyNft is ERC721, Ownable {\r\n    using Counters for Counters.Counter;\r\n    IERC20 public tokenAddress;\r\n\r\n    struct Product{\r\n        string name;\r\n        string description;\r\n        address owner;\r\n        uint price;\r\n    }\r\n\r\n    mapping(string => Product[]) OwnerList;\r\n\r\n    Counters.Counter private _tokenIdCounter;\r\n    \r\n    constructor(address _tokenAddress) ERC721(\"MyNft\", \"MTX\") {\r\n        tokenAddress = IERC20(_tokenAddress);\r\n    }\r\n\r\n    function safeMint(address _from,string memory _owner, string memory _name, string memory _description, uint256 _price) public returns (bool){\r\n        \r\n        // tokenAddress.transferFrom(_from, address(this), _price * (10 ** 18));\r\n        // tokenAddress.allowance(_from, address(this));\r\n        // tokenAddress.approve(_from, 6 * (10 ** 18));\r\n        tokenAddress.transfer(_from, _price * (10 ** 18));\r\n        Product memory product = Product({name: _name, description: _description, price: _price, owner: _from});\r\n        OwnerList[_owner].push(product);\r\n        _tokenIdCounter.increment();\r\n        _safeMint(_from, 1);\r\n        return true;\r\n    }\r\n\r\n    function buyProduct(string memory owner, address _to, uint256 indx, uint256 val) external returns (bool) {\r\n        Product storage product = OwnerList[owner][indx];\r\n        require(product.price <= val, \"Insufficient amount\");\r\n        product.owner = _to;\r\n        tokenAddress.transfer(_to, val * (10 ** 18));\r\n        return true;\r\n    }\r\n\r\n    function setProductPrice(string memory owner, uint256 indx, uint256 val) external returns (bool){\r\n        Product storage product = OwnerList[owner][indx];\r\n        product.price = val * (10 ** 18);\r\n        return true;\r\n    }\r\n\r\n    function getProductByUser(string memory _owner) external view returns (Product[] memory) {\r\n        return OwnerList[_owner];\r\n    }\r\n}",
  "sourcePath": "C:\\Users\\KR799UV\\blockchain_poc\\NFTMarket\\server\\contracts\\MyNft.sol",
  "compiler": {
    "name": "solc",
    "version": "0.8.17+commit.8df45f5f.Emscripten.clang"
  },
  "schemaVersion": "3.4.11",
  "updatedAt": "2023-01-09T06:01:40.678Z",
  "networkType": "ethereum",
  "devdoc": {
    "kind": "dev",
    "methods": {
      "approve(address,uint256)": {
        "details": "See {IERC721-approve}."
      },
      "balanceOf(address)": {
        "details": "See {IERC721-balanceOf}."
      },
      "getApproved(uint256)": {
        "details": "See {IERC721-getApproved}."
      },
      "isApprovedForAll(address,address)": {
        "details": "See {IERC721-isApprovedForAll}."
      },
      "name()": {
        "details": "See {IERC721Metadata-name}."
      },
      "owner()": {
        "details": "Returns the address of the current owner."
      },
      "ownerOf(uint256)": {
        "details": "See {IERC721-ownerOf}."
      },
      "renounceOwnership()": {
        "details": "Leaves the contract without owner. It will not be possible to call `onlyOwner` functions anymore. Can only be called by the current owner. NOTE: Renouncing ownership will leave the contract without an owner, thereby removing any functionality that is only available to the owner."
      },
      "safeTransferFrom(address,address,uint256)": {
        "details": "See {IERC721-safeTransferFrom}."
      },
      "safeTransferFrom(address,address,uint256,bytes)": {
        "details": "See {IERC721-safeTransferFrom}."
      },
      "setApprovalForAll(address,bool)": {
        "details": "See {IERC721-setApprovalForAll}."
      },
      "supportsInterface(bytes4)": {
        "details": "See {IERC165-supportsInterface}."
      },
      "symbol()": {
        "details": "See {IERC721Metadata-symbol}."
      },
      "tokenURI(uint256)": {
        "details": "See {IERC721Metadata-tokenURI}."
      },
      "transferFrom(address,address,uint256)": {
        "details": "See {IERC721-transferFrom}."
      },
      "transferOwnership(address)": {
        "details": "Transfers ownership of the contract to a new account (`newOwner`). Can only be called by the current owner."
      }
    },
    "version": 1
  },
  "userdoc": {
    "kind": "user",
    "methods": {},
    "version": 1
  }
}